{
  "contractName": "TokenFarm",
  "abi": [
    {
      "inputs": [
        {
          "internalType": "address",
          "name": "_go_dTokenAddress",
          "type": "address"
        }
      ],
      "stateMutability": "nonpayable",
      "type": "constructor"
    },
    {
      "anonymous": false,
      "inputs": [
        {
          "indexed": true,
          "internalType": "address",
          "name": "previousOwner",
          "type": "address"
        },
        {
          "indexed": true,
          "internalType": "address",
          "name": "newOwner",
          "type": "address"
        }
      ],
      "name": "OwnershipTransferred",
      "type": "event"
    },
    {
      "inputs": [],
      "name": "go_dToken",
      "outputs": [
        {
          "internalType": "contract IERC20",
          "name": "",
          "type": "address"
        }
      ],
      "stateMutability": "view",
      "type": "function",
      "constant": true
    },
    {
      "inputs": [],
      "name": "name",
      "outputs": [
        {
          "internalType": "string",
          "name": "",
          "type": "string"
        }
      ],
      "stateMutability": "view",
      "type": "function",
      "constant": true
    },
    {
      "inputs": [],
      "name": "owner",
      "outputs": [
        {
          "internalType": "address",
          "name": "",
          "type": "address"
        }
      ],
      "stateMutability": "view",
      "type": "function",
      "constant": true
    },
    {
      "inputs": [],
      "name": "renounceOwnership",
      "outputs": [],
      "stateMutability": "nonpayable",
      "type": "function"
    },
    {
      "inputs": [
        {
          "internalType": "uint256",
          "name": "",
          "type": "uint256"
        }
      ],
      "name": "stakers",
      "outputs": [
        {
          "internalType": "address",
          "name": "",
          "type": "address"
        }
      ],
      "stateMutability": "view",
      "type": "function",
      "constant": true
    },
    {
      "inputs": [
        {
          "internalType": "address",
          "name": "",
          "type": "address"
        },
        {
          "internalType": "address",
          "name": "",
          "type": "address"
        }
      ],
      "name": "stakingBalance",
      "outputs": [
        {
          "internalType": "uint256",
          "name": "",
          "type": "uint256"
        }
      ],
      "stateMutability": "view",
      "type": "function",
      "constant": true
    },
    {
      "inputs": [
        {
          "internalType": "address",
          "name": "",
          "type": "address"
        }
      ],
      "name": "tokenPriceFeedMapping",
      "outputs": [
        {
          "internalType": "address",
          "name": "",
          "type": "address"
        }
      ],
      "stateMutability": "view",
      "type": "function",
      "constant": true
    },
    {
      "inputs": [
        {
          "internalType": "address",
          "name": "newOwner",
          "type": "address"
        }
      ],
      "name": "transferOwnership",
      "outputs": [],
      "stateMutability": "nonpayable",
      "type": "function"
    },
    {
      "inputs": [
        {
          "internalType": "address",
          "name": "",
          "type": "address"
        }
      ],
      "name": "uniqueTokensStaked",
      "outputs": [
        {
          "internalType": "uint256",
          "name": "",
          "type": "uint256"
        }
      ],
      "stateMutability": "view",
      "type": "function",
      "constant": true
    },
    {
      "inputs": [
        {
          "internalType": "uint256",
          "name": "_amount",
          "type": "uint256"
        },
        {
          "internalType": "address",
          "name": "token",
          "type": "address"
        }
      ],
      "name": "stakeTokens",
      "outputs": [],
      "stateMutability": "nonpayable",
      "type": "function"
    },
    {
      "inputs": [
        {
          "internalType": "address",
          "name": "token",
          "type": "address"
        }
      ],
      "name": "isTokenAllowed",
      "outputs": [
        {
          "internalType": "bool",
          "name": "",
          "type": "bool"
        }
      ],
      "stateMutability": "nonpayable",
      "type": "function"
    },
    {
      "inputs": [
        {
          "internalType": "address",
          "name": "token",
          "type": "address"
        }
      ],
      "name": "addAllowedTokens",
      "outputs": [],
      "stateMutability": "nonpayable",
      "type": "function"
    },
    {
      "inputs": [
        {
          "internalType": "address",
          "name": "token",
          "type": "address"
        }
      ],
      "name": "unstakeTokens",
      "outputs": [],
      "stateMutability": "nonpayable",
      "type": "function"
    },
    {
      "inputs": [],
      "name": "issueTokens",
      "outputs": [],
      "stateMutability": "nonpayable",
      "type": "function"
    },
    {
      "inputs": [
        {
          "internalType": "address",
          "name": "user",
          "type": "address"
        }
      ],
      "name": "getUserTotalValue",
      "outputs": [
        {
          "internalType": "uint256",
          "name": "",
          "type": "uint256"
        }
      ],
      "stateMutability": "view",
      "type": "function",
      "constant": true
    },
    {
      "inputs": [
        {
          "internalType": "address",
          "name": "user",
          "type": "address"
        },
        {
          "internalType": "address",
          "name": "token",
          "type": "address"
        }
      ],
      "name": "getUserStakingBalanceEthValue",
      "outputs": [
        {
          "internalType": "uint256",
          "name": "",
          "type": "uint256"
        }
      ],
      "stateMutability": "view",
      "type": "function",
      "constant": true
    },
    {
      "inputs": [
        {
          "internalType": "address",
          "name": "token",
          "type": "address"
        },
        {
          "internalType": "address",
          "name": "priceFeed",
          "type": "address"
        }
      ],
      "name": "setPriceFeedContract",
      "outputs": [],
      "stateMutability": "nonpayable",
      "type": "function"
    },
    {
      "inputs": [
        {
          "internalType": "address",
          "name": "token",
          "type": "address"
        }
      ],
      "name": "getTokenEthPrice",
      "outputs": [
        {
          "internalType": "uint256",
          "name": "",
          "type": "uint256"
        }
      ],
      "stateMutability": "view",
      "type": "function",
      "constant": true
    }
  ],
  "bytecode": "0x60806040526040518060400160405280600f81526020017f476f5f6420546f6b656e204661726d0000000000000000000000000000000000815250600190805190602001906200005192919062000196565b503480156200005f57600080fd5b5060405162001d8d38038062001d8d833981810160405260208110156200008557600080fd5b81019080805190602001909291905050506000620000a86200018e60201b60201c565b9050806000806101000a81548173ffffffffffffffffffffffffffffffffffffffff021916908373ffffffffffffffffffffffffffffffffffffffff1602179055508073ffffffffffffffffffffffffffffffffffffffff16600073ffffffffffffffffffffffffffffffffffffffff167f8be0079c531659141344cd1fd0a4f28419497f9722a3daafe3b4186f6b6457e060405160405180910390a35080600260006101000a81548173ffffffffffffffffffffffffffffffffffffffff021916908373ffffffffffffffffffffffffffffffffffffffff1602179055505062000245565b600033905090565b828054600181600116156101000203166002900490600052602060002090601f016020900481019282601f10620001d957805160ff19168380011785556200020a565b828001600101855582156200020a579182015b8281111562000209578251825591602001919060010190620001ec565b5b5090506200021991906200021d565b5090565b6200024291905b808211156200023e57600081600090555060010162000224565b5090565b90565b611b3880620002556000396000f3fe608060405234801561001057600080fd5b50600436106101165760003560e01c8063877dd39d116100a2578063cc81e06011610071578063cc81e0601461052c578063df00018d146105a4578063f2fde38b146105fc578063f9eaee0d14610640578063fd5e6dd11461069c57610116565b8063877dd39d146103ce5780638da5cb5b14610432578063af3f5e221461047c578063b83e0234146104d457610116565b806327927b3e116100e957806327927b3e1461027a57806329161a00146102fe5780632d1ad8b81461037657806360ab5852146103ba578063715018a6146103c457610116565b806306fdde031461011b5780630bea440d1461019e57806313787336146101ec578063171e44ea14610236575b600080fd5b61012361070a565b6040518080602001828103825283818151815260200191508051906020019080838360005b83811015610163578082015181840152602081019050610148565b50505050905090810190601f1680156101905780820380516001836020036101000a031916815260200191505b509250505060405180910390f35b6101ea600480360360408110156101b457600080fd5b8101908080359060200190929190803573ffffffffffffffffffffffffffffffffffffffff1690602001909291905050506107a8565b005b6101f4610add565b604051808273ffffffffffffffffffffffffffffffffffffffff1673ffffffffffffffffffffffffffffffffffffffff16815260200191505060405180910390f35b6102786004803603602081101561024c57600080fd5b81019080803573ffffffffffffffffffffffffffffffffffffffff169060200190929190505050610b03565b005b6102bc6004803603602081101561029057600080fd5b81019080803573ffffffffffffffffffffffffffffffffffffffff169060200190929190505050610c18565b604051808273ffffffffffffffffffffffffffffffffffffffff1673ffffffffffffffffffffffffffffffffffffffff16815260200191505060405180910390f35b6103606004803603604081101561031457600080fd5b81019080803573ffffffffffffffffffffffffffffffffffffffff169060200190929190803573ffffffffffffffffffffffffffffffffffffffff169060200190929190505050610c4b565b6040518082815260200191505060405180910390f35b6103b86004803603602081101561038c57600080fd5b81019080803573ffffffffffffffffffffffffffffffffffffffff169060200190929190505050610c70565b005b6103c2610f36565b005b6103cc611132565b005b610430600480360360408110156103e457600080fd5b81019080803573ffffffffffffffffffffffffffffffffffffffff169060200190929190803573ffffffffffffffffffffffffffffffffffffffff1690602001909291905050506112a0565b005b61043a6113d1565b604051808273ffffffffffffffffffffffffffffffffffffffff1673ffffffffffffffffffffffffffffffffffffffff16815260200191505060405180910390f35b6104be6004803603602081101561049257600080fd5b81019080803573ffffffffffffffffffffffffffffffffffffffff1690602001909291905050506113fa565b6040518082815260200191505060405180910390f35b610516600480360360208110156104ea57600080fd5b81019080803573ffffffffffffffffffffffffffffffffffffffff1690602001909291905050506114b6565b6040518082815260200191505060405180910390f35b61058e6004803603604081101561054257600080fd5b81019080803573ffffffffffffffffffffffffffffffffffffffff169060200190929190803573ffffffffffffffffffffffffffffffffffffffff1690602001909291905050506114ce565b6040518082815260200191505060405180910390f35b6105e6600480360360208110156105ba57600080fd5b81019080803573ffffffffffffffffffffffffffffffffffffffff1690602001909291905050506115c0565b6040518082815260200191505060405180910390f35b61063e6004803603602081101561061257600080fd5b81019080803573ffffffffffffffffffffffffffffffffffffffff1690602001909291905050506116f4565b005b6106826004803603602081101561065657600080fd5b81019080803573ffffffffffffffffffffffffffffffffffffffff1690602001909291905050506118e7565b604051808215151515815260200191505060405180910390f35b6106c8600480360360208110156106b257600080fd5b8101908080359060200190929190505050611989565b604051808273ffffffffffffffffffffffffffffffffffffffff1673ffffffffffffffffffffffffffffffffffffffff16815260200191505060405180910390f35b60018054600181600116156101000203166002900480601f0160208091040260200160405190810160405280929190818152602001828054600181600116156101000203166002900480156107a05780601f10610775576101008083540402835291602001916107a0565b820191906000526020600020905b81548152906001019060200180831161078357829003601f168201915b505050505081565b6000821161081e576040517f08c379a00000000000000000000000000000000000000000000000000000000081526004018080602001828103825260158152602001807f616d6f756e742063616e6e6f74206265207a65726f000000000000000000000081525060200191505060405180910390fd5b610827816118e7565b15610ad95761083633826119c5565b8073ffffffffffffffffffffffffffffffffffffffff166323b872dd3330856040518463ffffffff1660e01b8152600401808473ffffffffffffffffffffffffffffffffffffffff1673ffffffffffffffffffffffffffffffffffffffff1681526020018373ffffffffffffffffffffffffffffffffffffffff1673ffffffffffffffffffffffffffffffffffffffff1681526020018281526020019350505050602060405180830381600087803b1580156108f157600080fd5b505af1158015610905573d6000803e3d6000fd5b505050506040513d602081101561091b57600080fd5b81019080805190602001909291905050505081600560008373ffffffffffffffffffffffffffffffffffffffff1673ffffffffffffffffffffffffffffffffffffffff16815260200190815260200160002060003373ffffffffffffffffffffffffffffffffffffffff1673ffffffffffffffffffffffffffffffffffffffff1681526020019081526020016000205401600560008373ffffffffffffffffffffffffffffffffffffffff1673ffffffffffffffffffffffffffffffffffffffff16815260200190815260200160002060003373ffffffffffffffffffffffffffffffffffffffff1673ffffffffffffffffffffffffffffffffffffffff168152602001908152602001600020819055506001600660003373ffffffffffffffffffffffffffffffffffffffff1673ffffffffffffffffffffffffffffffffffffffff168152602001908152602001600020541415610ad8576003339080600181540180825580915050600190039060005260206000200160009091909190916101000a81548173ffffffffffffffffffffffffffffffffffffffff021916908373ffffffffffffffffffffffffffffffffffffffff1602179055505b5b5050565b600260009054906101000a900473ffffffffffffffffffffffffffffffffffffffff1681565b610b0b611ad4565b73ffffffffffffffffffffffffffffffffffffffff16610b296113d1565b73ffffffffffffffffffffffffffffffffffffffff1614610bb2576040517f08c379a00000000000000000000000000000000000000000000000000000000081526004018080602001828103825260208152602001807f4f776e61626c653a2063616c6c6572206973206e6f7420746865206f776e657281525060200191505060405180910390fd5b6004819080600181540180825580915050600190039060005260206000200160009091909190916101000a81548173ffffffffffffffffffffffffffffffffffffffff021916908373ffffffffffffffffffffffffffffffffffffffff16021790555050565b60076020528060005260406000206000915054906101000a900473ffffffffffffffffffffffffffffffffffffffff1681565b6005602052816000526040600020602052806000526040600020600091509150505481565b6000600560008373ffffffffffffffffffffffffffffffffffffffff1673ffffffffffffffffffffffffffffffffffffffff16815260200190815260200160002060003373ffffffffffffffffffffffffffffffffffffffff1673ffffffffffffffffffffffffffffffffffffffff16815260200190815260200160002054905060008111610d67576040517f08c379a000000000000000000000000000000000000000000000000000000000815260040180806020018281038252601f8152602001807f5374616b696e672062616c616e63652063616e6e6f74206265207a65726f210081525060200191505060405180910390fd5b8173ffffffffffffffffffffffffffffffffffffffff1663a9059cbb33836040518363ffffffff1660e01b8152600401808373ffffffffffffffffffffffffffffffffffffffff1673ffffffffffffffffffffffffffffffffffffffff16815260200182815260200192505050602060405180830381600087803b158015610dee57600080fd5b505af1158015610e02573d6000803e3d6000fd5b505050506040513d6020811015610e1857600080fd5b8101908080519060200190929190505050506000600560008473ffffffffffffffffffffffffffffffffffffffff1673ffffffffffffffffffffffffffffffffffffffff16815260200190815260200160002060003373ffffffffffffffffffffffffffffffffffffffff1673ffffffffffffffffffffffffffffffffffffffff168152602001908152602001600020819055506001600660003373ffffffffffffffffffffffffffffffffffffffff1673ffffffffffffffffffffffffffffffffffffffff1681526020019081526020016000205403600660003373ffffffffffffffffffffffffffffffffffffffff1673ffffffffffffffffffffffffffffffffffffffff168152602001908152602001600020819055505050565b610f3e611ad4565b73ffffffffffffffffffffffffffffffffffffffff16610f5c6113d1565b73ffffffffffffffffffffffffffffffffffffffff1614610fe5576040517f08c379a00000000000000000000000000000000000000000000000000000000081526004018080602001828103825260208152602001807f4f776e61626c653a2063616c6c6572206973206e6f7420746865206f776e657281525060200191505060405180910390fd5b60008090505b60038054905081101561112f5760006003828154811061100757fe5b9060005260206000200160009054906101000a900473ffffffffffffffffffffffffffffffffffffffff169050600260009054906101000a900473ffffffffffffffffffffffffffffffffffffffff1673ffffffffffffffffffffffffffffffffffffffff1663a9059cbb8261107c846113fa565b6040518363ffffffff1660e01b8152600401808373ffffffffffffffffffffffffffffffffffffffff1673ffffffffffffffffffffffffffffffffffffffff16815260200182815260200192505050602060405180830381600087803b1580156110e557600080fd5b505af11580156110f9573d6000803e3d6000fd5b505050506040513d602081101561110f57600080fd5b810190808051906020019092919050505050508080600101915050610feb565b50565b61113a611ad4565b73ffffffffffffffffffffffffffffffffffffffff166111586113d1565b73ffffffffffffffffffffffffffffffffffffffff16146111e1576040517f08c379a00000000000000000000000000000000000000000000000000000000081526004018080602001828103825260208152602001807f4f776e61626c653a2063616c6c6572206973206e6f7420746865206f776e657281525060200191505060405180910390fd5b600073ffffffffffffffffffffffffffffffffffffffff166000809054906101000a900473ffffffffffffffffffffffffffffffffffffffff1673ffffffffffffffffffffffffffffffffffffffff167f8be0079c531659141344cd1fd0a4f28419497f9722a3daafe3b4186f6b6457e060405160405180910390a360008060006101000a81548173ffffffffffffffffffffffffffffffffffffffff021916908373ffffffffffffffffffffffffffffffffffffffff160217905550565b6112a8611ad4565b73ffffffffffffffffffffffffffffffffffffffff166112c66113d1565b73ffffffffffffffffffffffffffffffffffffffff161461134f576040517f08c379a00000000000000000000000000000000000000000000000000000000081526004018080602001828103825260208152602001807f4f776e61626c653a2063616c6c6572206973206e6f7420746865206f776e657281525060200191505060405180910390fd5b80600760008473ffffffffffffffffffffffffffffffffffffffff1673ffffffffffffffffffffffffffffffffffffffff16815260200190815260200160002060006101000a81548173ffffffffffffffffffffffffffffffffffffffff021916908373ffffffffffffffffffffffffffffffffffffffff1602179055505050565b60008060009054906101000a900473ffffffffffffffffffffffffffffffffffffffff16905090565b600080600090506000600660008573ffffffffffffffffffffffffffffffffffffffff1673ffffffffffffffffffffffffffffffffffffffff1681526020019081526020016000205411156114b05760008090505b6004805490508110156114ae5761149d846004838154811061146d57fe5b9060005260206000200160009054906101000a900473ffffffffffffffffffffffffffffffffffffffff166114ce565b82019150808060010191505061144f565b505b50919050565b60066020528060005260406000206000915090505481565b600080600660008573ffffffffffffffffffffffffffffffffffffffff1673ffffffffffffffffffffffffffffffffffffffff168152602001908152602001600020541161151f57600090506115ba565b670de0b6b3a7640000611531836115c0565b600560008573ffffffffffffffffffffffffffffffffffffffff1673ffffffffffffffffffffffffffffffffffffffff16815260200190815260200160002060008673ffffffffffffffffffffffffffffffffffffffff1673ffffffffffffffffffffffffffffffffffffffff1681526020019081526020016000205402816115b657fe5b0490505b92915050565b600080600760008473ffffffffffffffffffffffffffffffffffffffff1673ffffffffffffffffffffffffffffffffffffffff16815260200190815260200160002060009054906101000a900473ffffffffffffffffffffffffffffffffffffffff169050600081905060008060008060008573ffffffffffffffffffffffffffffffffffffffff1663feaf968c6040518163ffffffff1660e01b815260040160a06040518083038186803b15801561167857600080fd5b505afa15801561168c573d6000803e3d6000fd5b505050506040513d60a08110156116a257600080fd5b8101908080519060200190929190805190602001909291908051906020019092919080519060200190929190805190602001909291905050509450945094509450945083975050505050505050919050565b6116fc611ad4565b73ffffffffffffffffffffffffffffffffffffffff1661171a6113d1565b73ffffffffffffffffffffffffffffffffffffffff16146117a3576040517f08c379a00000000000000000000000000000000000000000000000000000000081526004018080602001828103825260208152602001807f4f776e61626c653a2063616c6c6572206973206e6f7420746865206f776e657281525060200191505060405180910390fd5b600073ffffffffffffffffffffffffffffffffffffffff168173ffffffffffffffffffffffffffffffffffffffff161415611829576040517f08c379a0000000000000000000000000000000000000000000000000000000008152600401808060200182810382526026815260200180611add6026913960400191505060405180910390fd5b8073ffffffffffffffffffffffffffffffffffffffff166000809054906101000a900473ffffffffffffffffffffffffffffffffffffffff1673ffffffffffffffffffffffffffffffffffffffff167f8be0079c531659141344cd1fd0a4f28419497f9722a3daafe3b4186f6b6457e060405160405180910390a3806000806101000a81548173ffffffffffffffffffffffffffffffffffffffff021916908373ffffffffffffffffffffffffffffffffffffffff16021790555050565b600080600090505b60048054905081101561197e578273ffffffffffffffffffffffffffffffffffffffff166004828154811061192057fe5b9060005260206000200160009054906101000a900473ffffffffffffffffffffffffffffffffffffffff1673ffffffffffffffffffffffffffffffffffffffff161415611971576001915050611984565b80806001019150506118ef565b50600090505b919050565b6003818154811061199657fe5b906000526020600020016000915054906101000a900473ffffffffffffffffffffffffffffffffffffffff1681565b6000600560008373ffffffffffffffffffffffffffffffffffffffff1673ffffffffffffffffffffffffffffffffffffffff16815260200190815260200160002060008473ffffffffffffffffffffffffffffffffffffffff1673ffffffffffffffffffffffffffffffffffffffff1681526020019081526020016000205411611ad0576001600660008473ffffffffffffffffffffffffffffffffffffffff1673ffffffffffffffffffffffffffffffffffffffff1681526020019081526020016000205401600660008473ffffffffffffffffffffffffffffffffffffffff1673ffffffffffffffffffffffffffffffffffffffff168152602001908152602001600020819055505b5050565b60003390509056fe4f776e61626c653a206e6577206f776e657220697320746865207a65726f2061646472657373a264697066735822122089d45738fffb59d7d2ec6e452a75acb1a507cd88193b2ff6193d5c4a16ecef7b64736f6c63430006060033",
  "immutableReferences": {},
  "source": "//what it needs to do: \r\n//0. work\r\n//1. staking\r\n//2. rewarding  (issue?)\r\n//3. unstake\r\n//4. allow addresses?\r\n\r\npragma solidity ^0.6.6;\r\n\r\n//import the interface IERC20 allows us to easily interact with ERC20\r\nimport \"@openzeppelin/contracts/token/ERC20/IERC20.sol\";\r\nimport \"@openzeppelin/contracts/access/Ownable.sol\";\r\nimport \"@chainlink/contracts/src/v0.6/interfaces/AggregatorV3Interface.sol\";\r\n\r\ncontract TokenFarm is Ownable{\r\n    string public name = \"Go_d Token Farm\";\r\n    IERC20 public go_dToken;\r\n    address[] public stakers;\r\n    //allow tokens, push in there\r\n    // mapping(address => bool) public allowedTokens;\r\n    address[] allowedTokens;\r\n    //^ upgrade this to mapping but just go with it for now\r\n    //stakingBalance is the \"ledger\" of approved tokens mapped to a mapping\r\n    //token address => mapping of user addresses -> amounts\r\n    mapping(address => mapping(address => uint256)) public stakingBalance;\r\n    mapping(address => uint256) public uniqueTokensStaked;\r\n    mapping(address => address) public tokenPriceFeedMapping;\r\n    \r\n    constructor(address _go_dTokenAddress) public {\r\n        //allows us to say \"hey this is an erc20\"\r\n        go_dToken = IERC20(_go_dTokenAddress);\r\n    }\r\n\r\n    //how to let the users stake (without rewards)\r\n    function stakeTokens(uint256 _amount, address token) public {\r\n        //stake a certain amout of a token\r\n        require(_amount > 0, \"amount cannot be zero\");\r\n        //think about do we want them to stake any and all tokens?\r\n        //how to assess value?  need price feed\r\n        //create new function tokenIsAllowed\r\n        if (isTokenAllowed(token)) {\r\n            //unlock this\r\n            updateUniqueTokensStake(msg.sender, token);\r\n            //here the contract is actually doing the transferring, approve that this contract can do\r\n            //send from user to THIS CONTRACT, because the user owns the tokens and the contract moves\r\n            IERC20(token).transferFrom(msg.sender, address(this), _amount);\r\n            //keep track (add the new amount)\r\n            stakingBalance[token][msg.sender] = stakingBalance[token][msg.sender] + _amount;\r\n            //only update if a unique token has been staked\r\n            //if first token\r\n            if (uniqueTokensStaked[msg.sender] == 1){\r\n                stakers.push(msg.sender);\r\n            } \r\n        }\r\n    }\r\n    //this is a dangerous function!!! why?\r\n    function updateUniqueTokensStake(address user, address token) internal {\r\n        if(stakingBalance[token][user] <= 0){\r\n            uniqueTokensStaked[user] = uniqueTokensStaked[user] + 1;\r\n        }\r\n    }\r\n\r\n    function isTokenAllowed(address token) public returns(bool){\r\n        //we need a mapping or array, loop around it\r\n        for(\r\n            uint256 allowedTokensIndex = 0;\r\n            allowedTokensIndex < allowedTokens.length;\r\n            allowedTokensIndex++) {\r\n                if (allowedTokens[allowedTokensIndex] == token){\r\n                    return true;\r\n                }\r\n            }\r\n            return false;\r\n    }\r\n    //need a token manager, such as governance DAO or onlyOwner\r\n    function addAllowedTokens(address token) public onlyOwner {\r\n        allowedTokens.push(token);\r\n        // allowedTokens[token] = true;\r\n    }\r\n\r\n    function unstakeTokens(address token) public {\r\n        uint256 balance = stakingBalance[token][msg.sender];\r\n        require(balance > 0, \"Staking balance cannot be zero!\");\r\n        //notice transfer vs transferFrom\r\n        //we use transfer when the contract owns the tokens AND is moving the tokens\r\n        IERC20(token).transfer(msg.sender, balance);\r\n        stakingBalance[token][msg.sender] = 0;\r\n        uniqueTokensStaked[msg.sender] = uniqueTokensStaked[msg.sender] - 1;\r\n    }\r\n\r\n    //liquidity farming stuff!\r\n    function issueTokens() public onlyOwner {\r\n        //we want an idea of who the stakers are\r\n        for (\r\n            uint256 stakersIndex = 0;\r\n            stakersIndex < stakers.length;\r\n            stakersIndex++){\r\n                address recipient = stakers[stakersIndex];\r\n                go_dToken.transfer(recipient, getUserTotalValue(recipient));\r\n            }\r\n    }\r\n\r\n    function getUserTotalValue(address user) public view returns(uint256){\r\n        uint256 totalValue = 0;\r\n        if (uniqueTokensStaked[user] > 0){\r\n        //loop through all the tokens they have staked and get the ethereum value\r\n            //a mapping would be suck\r\n            for(\r\n                uint256 allowedTokensIndex=0;\r\n                allowedTokensIndex < allowedTokens.length;\r\n                allowedTokensIndex++\r\n            ){\r\n                //get the value of the user and the tokens \r\n                totalValue = \r\n                    totalValue + \r\n                    getUserStakingBalanceEthValue(\r\n                        user,\r\n                        allowedTokens[allowedTokensIndex]\r\n                );\r\n            }\r\n        }\r\n    }\r\n\r\n    function getUserStakingBalanceEthValue(address user, address token) public view returns (uint256){\r\n        if(uniqueTokensStaked[user] <= 0){\r\n            return 0;\r\n        } //you don't any tokens, bub, beat it! https://youtu.be/Zuyfy9wz5Ww?list=PLVP9aGDn-X0Shwzuvw12srE-O6WKsGvY_&t=3529 \r\n        return (stakingBalance[token][user] * getTokenEthPrice(token)) / (10**18); //divide by precision\r\n    }\r\n\r\n    function setPriceFeedContract(address token, address priceFeed) public onlyOwner {\r\n        tokenPriceFeedMapping[token] = priceFeed;\r\n    }\r\n\r\n    function getTokenEthPrice(address token) public view returns(uint256){\r\n        address priceFeedAddress = tokenPriceFeedMapping[token];\r\n        //https://docs.chain.link/docs/get-the-latest-price/\r\n        AggregatorV3Interface priceFeed = AggregatorV3Interface (priceFeedAddress);\r\n         (\r\n            uint80 roundID, \r\n            int price,\r\n            uint startedAt,\r\n            uint timeStamp,\r\n            uint80 answeredInRound\r\n        ) = priceFeed.latestRoundData();\r\n        return uint256(price);\r\n    }\r\n}",
  "sourcePath": "C:/Users/tippi/Dropbox/My PC (LAPTOP-7Q52KVFF)/Documents/GitHub/Blockathon/0/chainlink/restart/contracts/TokenFarm.sol",
  "compiler": {
    "name": "solc",
    "version": "0.6.6+commit.6c089d02.Emscripten.clang"
  },
  "schemaVersion": "3.4.1",
  "updatedAt": "2021-06-16T21:27:16.508Z",
  "networkType": "ethereum",
  "devdoc": {
    "methods": {
      "owner()": {
        "details": "Returns the address of the current owner."
      },
      "renounceOwnership()": {
        "details": "Leaves the contract without owner. It will not be possible to call `onlyOwner` functions anymore. Can only be called by the current owner.     * NOTE: Renouncing ownership will leave the contract without an owner, thereby removing any functionality that is only available to the owner."
      },
      "transferOwnership(address)": {
        "details": "Transfers ownership of the contract to a new account (`newOwner`). Can only be called by the current owner."
      }
    }
  },
  "userdoc": {
    "methods": {}
  }
}